{
  "_format": "hh-sol-artifact-1",
  "contractName": "DegenToken",
  "sourceName": "contracts/DegenToken.sol",
  "abi": [
    {
      "inputs": [
        {
          "internalType": "string",
          "name": "name",
          "type": "string"
        },
        {
          "internalType": "string",
          "name": "symbol",
          "type": "string"
        }
      ],
      "stateMutability": "nonpayable",
      "type": "constructor"
    },
    {
      "inputs": [
        {
          "internalType": "address",
          "name": "spender",
          "type": "address"
        },
        {
          "internalType": "address",
          "name": "from",
          "type": "address"
        },
        {
          "internalType": "uint256",
          "name": "currentAllowance",
          "type": "uint256"
        },
        {
          "internalType": "uint256",
          "name": "value",
          "type": "uint256"
        }
      ],
      "name": "InsufficientAllowance",
      "type": "error"
    },
    {
      "inputs": [
        {
          "internalType": "address",
          "name": "from",
          "type": "address"
        },
        {
          "internalType": "uint256",
          "name": "fromBalance",
          "type": "uint256"
        },
        {
          "internalType": "uint256",
          "name": "value",
          "type": "uint256"
        }
      ],
      "name": "InsufficientBalance",
      "type": "error"
    },
    {
      "inputs": [
        {
          "internalType": "address",
          "name": "_to",
          "type": "address"
        }
      ],
      "name": "InvalidReceiver",
      "type": "error"
    },
    {
      "anonymous": false,
      "inputs": [
        {
          "indexed": true,
          "internalType": "address",
          "name": "owner",
          "type": "address"
        },
        {
          "indexed": true,
          "internalType": "address",
          "name": "spender",
          "type": "address"
        },
        {
          "indexed": false,
          "internalType": "uint256",
          "name": "value",
          "type": "uint256"
        }
      ],
      "name": "Approval",
      "type": "event"
    },
    {
      "anonymous": false,
      "inputs": [
        {
          "indexed": false,
          "internalType": "address",
          "name": "from",
          "type": "address"
        },
        {
          "indexed": false,
          "internalType": "uint256",
          "name": "value",
          "type": "uint256"
        }
      ],
      "name": "Burn",
      "type": "event"
    },
    {
      "anonymous": false,
      "inputs": [
        {
          "indexed": false,
          "internalType": "address",
          "name": "to",
          "type": "address"
        },
        {
          "indexed": false,
          "internalType": "uint256",
          "name": "value",
          "type": "uint256"
        }
      ],
      "name": "Mint",
      "type": "event"
    },
    {
      "anonymous": false,
      "inputs": [
        {
          "indexed": true,
          "internalType": "address",
          "name": "from",
          "type": "address"
        },
        {
          "indexed": true,
          "internalType": "address",
          "name": "to",
          "type": "address"
        },
        {
          "indexed": false,
          "internalType": "uint256",
          "name": "value",
          "type": "uint256"
        }
      ],
      "name": "Transfer",
      "type": "event"
    },
    {
      "inputs": [
        {
          "internalType": "address",
          "name": "owner",
          "type": "address"
        },
        {
          "internalType": "address",
          "name": "spender",
          "type": "address"
        }
      ],
      "name": "allowance",
      "outputs": [
        {
          "internalType": "uint256",
          "name": "",
          "type": "uint256"
        }
      ],
      "stateMutability": "view",
      "type": "function"
    },
    {
      "inputs": [
        {
          "internalType": "address",
          "name": "spender",
          "type": "address"
        },
        {
          "internalType": "uint256",
          "name": "value",
          "type": "uint256"
        }
      ],
      "name": "approve",
      "outputs": [
        {
          "internalType": "bool",
          "name": "",
          "type": "bool"
        }
      ],
      "stateMutability": "nonpayable",
      "type": "function"
    },
    {
      "inputs": [
        {
          "internalType": "address",
          "name": "account",
          "type": "address"
        }
      ],
      "name": "balanceOf",
      "outputs": [
        {
          "internalType": "uint256",
          "name": "",
          "type": "uint256"
        }
      ],
      "stateMutability": "view",
      "type": "function"
    },
    {
      "inputs": [
        {
          "internalType": "uint256",
          "name": "value",
          "type": "uint256"
        }
      ],
      "name": "burn",
      "outputs": [
        {
          "internalType": "bool",
          "name": "",
          "type": "bool"
        }
      ],
      "stateMutability": "nonpayable",
      "type": "function"
    },
    {
      "inputs": [
        {
          "internalType": "address",
          "name": "account",
          "type": "address"
        }
      ],
      "name": "getPurchases",
      "outputs": [
        {
          "internalType": "string[]",
          "name": "",
          "type": "string[]"
        }
      ],
      "stateMutability": "view",
      "type": "function"
    },
    {
      "inputs": [
        {
          "internalType": "address",
          "name": "to",
          "type": "address"
        },
        {
          "internalType": "uint256",
          "name": "value",
          "type": "uint256"
        }
      ],
      "name": "mint",
      "outputs": [
        {
          "internalType": "bool",
          "name": "",
          "type": "bool"
        }
      ],
      "stateMutability": "nonpayable",
      "type": "function"
    },
    {
      "inputs": [
        {
          "internalType": "string",
          "name": "itemName",
          "type": "string"
        },
        {
          "internalType": "uint256",
          "name": "value",
          "type": "uint256"
        }
      ],
      "name": "redeem",
      "outputs": [],
      "stateMutability": "nonpayable",
      "type": "function"
    },
    {
      "inputs": [],
      "name": "totalSupply",
      "outputs": [
        {
          "internalType": "uint256",
          "name": "",
          "type": "uint256"
        }
      ],
      "stateMutability": "view",
      "type": "function"
    },
    {
      "inputs": [
        {
          "internalType": "address",
          "name": "to",
          "type": "address"
        },
        {
          "internalType": "uint256",
          "name": "value",
          "type": "uint256"
        }
      ],
      "name": "transfer",
      "outputs": [
        {
          "internalType": "bool",
          "name": "",
          "type": "bool"
        }
      ],
      "stateMutability": "nonpayable",
      "type": "function"
    },
    {
      "inputs": [
        {
          "internalType": "address",
          "name": "from",
          "type": "address"
        },
        {
          "internalType": "address",
          "name": "to",
          "type": "address"
        },
        {
          "internalType": "uint256",
          "name": "value",
          "type": "uint256"
        }
      ],
      "name": "transferFrom",
      "outputs": [
        {
          "internalType": "bool",
          "name": "",
          "type": "bool"
        }
      ],
      "stateMutability": "nonpayable",
      "type": "function"
    }
  ],
  "bytecode": "0x608060405260006005553480156200001657600080fd5b50604051620020d3380380620020d383398181016040528101906200003c91906200023c565b81600090816200004d91906200050c565b5080600190816200005f91906200050c565b5033600260006101000a81548173ffffffffffffffffffffffffffffffffffffffff021916908373ffffffffffffffffffffffffffffffffffffffff1602179055505050620005f3565b6000604051905090565b600080fd5b600080fd5b600080fd5b600080fd5b6000601f19601f8301169050919050565b7f4e487b7100000000000000000000000000000000000000000000000000000000600052604160045260246000fd5b6200011282620000c7565b810181811067ffffffffffffffff82111715620001345762000133620000d8565b5b80604052505050565b600062000149620000a9565b905062000157828262000107565b919050565b600067ffffffffffffffff8211156200017a5762000179620000d8565b5b6200018582620000c7565b9050602081019050919050565b60005b83811015620001b257808201518184015260208101905062000195565b60008484015250505050565b6000620001d5620001cf846200015c565b6200013d565b905082815260208101848484011115620001f457620001f3620000c2565b5b6200020184828562000192565b509392505050565b600082601f830112620002215762000220620000bd565b5b815162000233848260208601620001be565b91505092915050565b60008060408385031215620002565762000255620000b3565b5b600083015167ffffffffffffffff811115620002775762000276620000b8565b5b620002858582860162000209565b925050602083015167ffffffffffffffff811115620002a957620002a8620000b8565b5b620002b78582860162000209565b9150509250929050565b600081519050919050565b7f4e487b7100000000000000000000000000000000000000000000000000000000600052602260045260246000fd5b600060028204905060018216806200031457607f821691505b6020821081036200032a5762000329620002cc565b5b50919050565b60008190508160005260206000209050919050565b60006020601f8301049050919050565b600082821b905092915050565b600060088302620003947fffffffffffffffffffffffffffffffffffffffffffffffffffffffffffffffff8262000355565b620003a0868362000355565b95508019841693508086168417925050509392505050565b6000819050919050565b6000819050919050565b6000620003ed620003e7620003e184620003b8565b620003c2565b620003b8565b9050919050565b6000819050919050565b6200040983620003cc565b620004216200041882620003f4565b84845462000362565b825550505050565b600090565b6200043862000429565b62000445818484620003fe565b505050565b5b818110156200046d57620004616000826200042e565b6001810190506200044b565b5050565b601f821115620004bc57620004868162000330565b620004918462000345565b81016020851015620004a1578190505b620004b9620004b08562000345565b8301826200044a565b50505b505050565b600082821c905092915050565b6000620004e160001984600802620004c1565b1980831691505092915050565b6000620004fc8383620004ce565b9150826002028217905092915050565b6200051782620002c1565b67ffffffffffffffff811115620005335762000532620000d8565b5b6200053f8254620002fb565b6200054c82828562000471565b600060209050601f8311600181146200058457600084156200056f578287015190505b6200057b8582620004ee565b865550620005eb565b601f198416620005948662000330565b60005b82811015620005be5784890151825560018201915060208501945060208101905062000597565b86831015620005de5784890151620005da601f891682620004ce565b8355505b6001600288020188555050505b505050505050565b611ad080620006036000396000f3fe608060405234801561001057600080fd5b506004361061009e5760003560e01c806370a082311161006657806370a082311461018157806370cd5a80146101b1578063a9059cbb146101e1578063b1b86b1314610211578063dd62ed3e1461022d5761009e565b8063095ea7b3146100a357806318160ddd146100d357806323b872dd146100f157806340c10f191461012157806342966c6814610151575b600080fd5b6100bd60048036038101906100b89190611121565b61025d565b6040516100ca919061117c565b60405180910390f35b6100db6104bb565b6040516100e891906111a6565b60405180910390f35b61010b600480360381019061010691906111c1565b6104c5565b604051610118919061117c565b60405180910390f35b61013b60048036038101906101369190611121565b610763565b604051610148919061117c565b60405180910390f35b61016b60048036038101906101669190611214565b6108a7565b604051610178919061117c565b60405180910390f35b61019b60048036038101906101969190611241565b610a2c565b6040516101a891906111a6565b60405180910390f35b6101cb60048036038101906101c69190611241565b610a75565b6040516101d891906113c0565b60405180910390f35b6101fb60048036038101906101f69190611121565b610b8d565b604051610208919061117c565b60405180910390f35b61022b60048036038101906102269190611517565b610dee565b005b61024760048036038101906102429190611573565b610ff2565b60405161025491906111a6565b60405180910390f35b6000803390506000600360008373ffffffffffffffffffffffffffffffffffffffff1673ffffffffffffffffffffffffffffffffffffffff168152602001908152602001600020549050600073ffffffffffffffffffffffffffffffffffffffff168573ffffffffffffffffffffffffffffffffffffffff160361031857846040517f9cfea58300000000000000000000000000000000000000000000000000000000815260040161030f91906115c2565b60405180910390fd5b83811015610361578181856040517fdb42144d000000000000000000000000000000000000000000000000000000008152600401610358939291906115dd565b60405180910390fd5b83600360008473ffffffffffffffffffffffffffffffffffffffff1673ffffffffffffffffffffffffffffffffffffffff16815260200190815260200160002060008282546103b09190611643565b9250508190555083600660008473ffffffffffffffffffffffffffffffffffffffff1673ffffffffffffffffffffffffffffffffffffffff16815260200190815260200160002060008773ffffffffffffffffffffffffffffffffffffffff1673ffffffffffffffffffffffffffffffffffffffff16815260200190815260200160002060008282546104439190611677565b925050819055508473ffffffffffffffffffffffffffffffffffffffff168273ffffffffffffffffffffffffffffffffffffffff167f8c5be1e5ebec7d5bd14f71427d1e84f3dd0314c0f7b2291e5b200ac8c7c3b925866040516104a791906111a6565b60405180910390a360019250505092915050565b6000600554905090565b6000803390506000600660008773ffffffffffffffffffffffffffffffffffffffff1673ffffffffffffffffffffffffffffffffffffffff16815260200190815260200160002060008373ffffffffffffffffffffffffffffffffffffffff1673ffffffffffffffffffffffffffffffffffffffff168152602001908152602001600020549050600073ffffffffffffffffffffffffffffffffffffffff168573ffffffffffffffffffffffffffffffffffffffff16036105bd57846040517f9cfea5830000000000000000000000000000000000000000000000000000000081526004016105b491906115c2565b60405180910390fd5b8381101561060857818682866040517f91beda240000000000000000000000000000000000000000000000000000000081526004016105ff94939291906116ab565b60405180910390fd5b83600660008873ffffffffffffffffffffffffffffffffffffffff1673ffffffffffffffffffffffffffffffffffffffff16815260200190815260200160002060008473ffffffffffffffffffffffffffffffffffffffff1673ffffffffffffffffffffffffffffffffffffffff16815260200190815260200160002060008282546106949190611643565b9250508190555083600360008773ffffffffffffffffffffffffffffffffffffffff1673ffffffffffffffffffffffffffffffffffffffff16815260200190815260200160002060008282546106ea9190611677565b925050819055508473ffffffffffffffffffffffffffffffffffffffff168673ffffffffffffffffffffffffffffffffffffffff167fddf252ad1be2c89b69c2b068fc378daa952ba7f163c4a11628f55a4df523b3ef8660405161074e91906111a6565b60405180910390a36001925050509392505050565b6000600260009054906101000a900473ffffffffffffffffffffffffffffffffffffffff1673ffffffffffffffffffffffffffffffffffffffff163373ffffffffffffffffffffffffffffffffffffffff16146107f5576040517f08c379a00000000000000000000000000000000000000000000000000000000081526004016107ec90611773565b60405180910390fd5b81600360008573ffffffffffffffffffffffffffffffffffffffff1673ffffffffffffffffffffffffffffffffffffffff16815260200190815260200160002060008282546108449190611677565b92505081905550816005600082825461085d9190611677565b925050819055507f0f6798a560793a54c3bcfe86a93cde1e73087d944c0ea20544137d41213968858383604051610895929190611793565b60405180910390a16001905092915050565b6000803390506000600360008373ffffffffffffffffffffffffffffffffffffffff1673ffffffffffffffffffffffffffffffffffffffff16815260200190815260200160002054905083600360008473ffffffffffffffffffffffffffffffffffffffff1673ffffffffffffffffffffffffffffffffffffffff168152602001908152602001600020541015610979578181856040517fdb42144d000000000000000000000000000000000000000000000000000000008152600401610970939291906115dd565b60405180910390fd5b83600360008473ffffffffffffffffffffffffffffffffffffffff1673ffffffffffffffffffffffffffffffffffffffff16815260200190815260200160002060008282546109c89190611643565b9250508190555083600560008282546109e19190611643565b925050819055507fcc16f5dbb4873280815c1ee09dbd06736cffcc184412cf7a71a0fdb75d397ca58285604051610a19929190611793565b60405180910390a1600192505050919050565b6000600360008373ffffffffffffffffffffffffffffffffffffffff1673ffffffffffffffffffffffffffffffffffffffff168152602001908152602001600020549050919050565b6060600460008373ffffffffffffffffffffffffffffffffffffffff1673ffffffffffffffffffffffffffffffffffffffff168152602001908152602001600020805480602002602001604051908101604052809291908181526020016000905b82821015610b82578382906000526020600020018054610af5906117eb565b80601f0160208091040260200160405190810160405280929190818152602001828054610b21906117eb565b8015610b6e5780601f10610b4357610100808354040283529160200191610b6e565b820191906000526020600020905b815481529060010190602001808311610b5157829003601f168201915b505050505081526020019060010190610ad6565b505050509050919050565b60008073ffffffffffffffffffffffffffffffffffffffff168373ffffffffffffffffffffffffffffffffffffffff1603610c005760006040517f9cfea583000000000000000000000000000000000000000000000000000000008152600401610bf791906115c2565b60405180910390fd5b60003390506000600360008373ffffffffffffffffffffffffffffffffffffffff1673ffffffffffffffffffffffffffffffffffffffff16815260200190815260200160002054905083600360008473ffffffffffffffffffffffffffffffffffffffff1673ffffffffffffffffffffffffffffffffffffffff168152602001908152602001600020541015610cd1578181856040517fdb42144d000000000000000000000000000000000000000000000000000000008152600401610cc8939291906115dd565b60405180910390fd5b83600360008473ffffffffffffffffffffffffffffffffffffffff1673ffffffffffffffffffffffffffffffffffffffff1681526020019081526020016000206000828254610d209190611643565b9250508190555083600360008773ffffffffffffffffffffffffffffffffffffffff1673ffffffffffffffffffffffffffffffffffffffff1681526020019081526020016000206000828254610d769190611677565b925050819055508473ffffffffffffffffffffffffffffffffffffffff168273ffffffffffffffffffffffffffffffffffffffff167fddf252ad1be2c89b69c2b068fc378daa952ba7f163c4a11628f55a4df523b3ef86604051610dda91906111a6565b60405180910390a360019250505092915050565b60003390506000600360008373ffffffffffffffffffffffffffffffffffffffff1673ffffffffffffffffffffffffffffffffffffffff16815260200190815260200160002054905082600360008473ffffffffffffffffffffffffffffffffffffffff1673ffffffffffffffffffffffffffffffffffffffff168152602001908152602001600020541015610ebf578181846040517fdb42144d000000000000000000000000000000000000000000000000000000008152600401610eb6939291906115dd565b60405180910390fd5b82600360008473ffffffffffffffffffffffffffffffffffffffff1673ffffffffffffffffffffffffffffffffffffffff1681526020019081526020016000206000828254610f0e9190611643565b92505081905550600460008373ffffffffffffffffffffffffffffffffffffffff1673ffffffffffffffffffffffffffffffffffffffff16815260200190815260200160002084908060018154018082558091505060019003906000526020600020016000909190919091509081610f8691906119c8565b503073ffffffffffffffffffffffffffffffffffffffff168273ffffffffffffffffffffffffffffffffffffffff167fddf252ad1be2c89b69c2b068fc378daa952ba7f163c4a11628f55a4df523b3ef85604051610fe491906111a6565b60405180910390a350505050565b6000600660008473ffffffffffffffffffffffffffffffffffffffff1673ffffffffffffffffffffffffffffffffffffffff16815260200190815260200160002060008373ffffffffffffffffffffffffffffffffffffffff1673ffffffffffffffffffffffffffffffffffffffff16815260200190815260200160002054905092915050565b6000604051905090565b600080fd5b600080fd5b600073ffffffffffffffffffffffffffffffffffffffff82169050919050565b60006110b88261108d565b9050919050565b6110c8816110ad565b81146110d357600080fd5b50565b6000813590506110e5816110bf565b92915050565b6000819050919050565b6110fe816110eb565b811461110957600080fd5b50565b60008135905061111b816110f5565b92915050565b6000806040838503121561113857611137611083565b5b6000611146858286016110d6565b92505060206111578582860161110c565b9150509250929050565b60008115159050919050565b61117681611161565b82525050565b6000602082019050611191600083018461116d565b92915050565b6111a0816110eb565b82525050565b60006020820190506111bb6000830184611197565b92915050565b6000806000606084860312156111da576111d9611083565b5b60006111e8868287016110d6565b93505060206111f9868287016110d6565b925050604061120a8682870161110c565b9150509250925092565b60006020828403121561122a57611229611083565b5b60006112388482850161110c565b91505092915050565b60006020828403121561125757611256611083565b5b6000611265848285016110d6565b91505092915050565b600081519050919050565b600082825260208201905092915050565b6000819050602082019050919050565b600081519050919050565b600082825260208201905092915050565b60005b838110156112d45780820151818401526020810190506112b9565b60008484015250505050565b6000601f19601f8301169050919050565b60006112fc8261129a565b61130681856112a5565b93506113168185602086016112b6565b61131f816112e0565b840191505092915050565b600061133683836112f1565b905092915050565b6000602082019050919050565b60006113568261126e565b6113608185611279565b9350836020820285016113728561128a565b8060005b858110156113ae578484038952815161138f858261132a565b945061139a8361133e565b925060208a01995050600181019050611376565b50829750879550505050505092915050565b600060208201905081810360008301526113da818461134b565b905092915050565b600080fd5b600080fd5b7f4e487b7100000000000000000000000000000000000000000000000000000000600052604160045260246000fd5b611424826112e0565b810181811067ffffffffffffffff82111715611443576114426113ec565b5b80604052505050565b6000611456611079565b9050611462828261141b565b919050565b600067ffffffffffffffff821115611482576114816113ec565b5b61148b826112e0565b9050602081019050919050565b82818337600083830152505050565b60006114ba6114b584611467565b61144c565b9050828152602081018484840111156114d6576114d56113e7565b5b6114e1848285611498565b509392505050565b600082601f8301126114fe576114fd6113e2565b5b813561150e8482602086016114a7565b91505092915050565b6000806040838503121561152e5761152d611083565b5b600083013567ffffffffffffffff81111561154c5761154b611088565b5b611558858286016114e9565b92505060206115698582860161110c565b9150509250929050565b6000806040838503121561158a57611589611083565b5b6000611598858286016110d6565b92505060206115a9858286016110d6565b9150509250929050565b6115bc816110ad565b82525050565b60006020820190506115d760008301846115b3565b92915050565b60006060820190506115f260008301866115b3565b6115ff6020830185611197565b61160c6040830184611197565b949350505050565b7f4e487b7100000000000000000000000000000000000000000000000000000000600052601160045260246000fd5b600061164e826110eb565b9150611659836110eb565b925082820390508181111561167157611670611614565b5b92915050565b6000611682826110eb565b915061168d836110eb565b92508282019050808211156116a5576116a4611614565b5b92915050565b60006080820190506116c060008301876115b3565b6116cd60208301866115b3565b6116da6040830185611197565b6116e76060830184611197565b95945050505050565b600082825260208201905092915050565b7f4f6e6c79206f776e657220697320616c6c6f77656420746f20706572666f726d60008201527f2074686973206f7065726174696f6e0000000000000000000000000000000000602082015250565b600061175d602f836116f0565b915061176882611701565b604082019050919050565b6000602082019050818103600083015261178c81611750565b9050919050565b60006040820190506117a860008301856115b3565b6117b56020830184611197565b9392505050565b7f4e487b7100000000000000000000000000000000000000000000000000000000600052602260045260246000fd5b6000600282049050600182168061180357607f821691505b602082108103611816576118156117bc565b5b50919050565b60008190508160005260206000209050919050565b60006020601f8301049050919050565b600082821b905092915050565b60006008830261187e7fffffffffffffffffffffffffffffffffffffffffffffffffffffffffffffffff82611841565b6118888683611841565b95508019841693508086168417925050509392505050565b6000819050919050565b60006118c56118c06118bb846110eb565b6118a0565b6110eb565b9050919050565b6000819050919050565b6118df836118aa565b6118f36118eb826118cc565b84845461184e565b825550505050565b600090565b6119086118fb565b6119138184846118d6565b505050565b5b818110156119375761192c600082611900565b600181019050611919565b5050565b601f82111561197c5761194d8161181c565b61195684611831565b81016020851015611965578190505b61197961197185611831565b830182611918565b50505b505050565b600082821c905092915050565b600061199f60001984600802611981565b1980831691505092915050565b60006119b8838361198e565b9150826002028217905092915050565b6119d18261129a565b67ffffffffffffffff8111156119ea576119e96113ec565b5b6119f482546117eb565b6119ff82828561193b565b600060209050601f831160018114611a325760008415611a20578287015190505b611a2a85826119ac565b865550611a92565b601f198416611a408661181c565b60005b82811015611a6857848901518255600182019150602085019450602081019050611a43565b86831015611a855784890151611a81601f89168261198e565b8355505b6001600288020188555050505b50505050505056fea26469706673582212200d2565910a197d48a5fd6d72511a1de3db65141ccabe02a70f6d879cc1f63cde64736f6c63430008140033",
  "linkReferences": {},
  "deployedLinkReferences": {}
}